:020000040000FA
:060000000A128A11122809
:10000800FE00030E83120313C8000408C9000A087F
:10001800CA007F08CB000A128A11FC2D0A128A1125
:1000280015288313BF30FD000C30FE008E30FF0012
:10003800B13084000A128A15DD240A128A11831647
:100048000313BF01C001C101C2014C3084006830F4
:100058000A128A150F240A128A1183010A128A11B8
:10006800962B8312031323088039FF007F08A8000A
:100078002308F9007907FF007F08AE00A21F452872
:10008800462847282E142E0803194B284C285B288D
:100098002E0A031D5028512859280030A30000308B
:1000A800A2000030A1000030A000A2176328003091
:1000B800A3000030A2000030A1000030A0002708F3
:1000C8008039FF007F08A8062708F9007907FF0094
:1000D8007F08AD00A61F7128722873282D142D08DB
:1000E80003197728782887282D0A031D7C287D285E
:1000F80085280030A7000030A6000030A500003099
:10010800A400A6178F280030A7000030A6000030F2
:10011800A5000030A4002D080319932894289928D5
:100128002E08031D98289928A2280030A300003023
:10013800A2000030A1000030A000952B2008FF008D
:100148007F08F00026080A128A15B1250A128A11BA
:10015800710883120313B4007008B3003308F90060
:10016800FA01FB01FC017C08AC007B08AB007A08B3
:10017800AA007908A9003408F900FA01FB01FC017A
:100188007C08B2007B08B1007A08B0007908AF009B
:100198002108FF007F08F00025080A128A15B125FA
:1001A8000A128A11710883120313B4007008B3008D
:1001B8003308F900FA01FB01FC017908A9077A085C
:1001C80003110318013E0319EA28AA077B08031143
:1001D8000318013E0319F128AB077C080311031823
:1001E800013E0319F828AC073408F900FA01FB01AD
:1001F800FC017908AF077A0803110318013E0319B7
:100208000629B0077B0803110318013E03190D29BD
:10021800B1077C0803110318013E03191429B2071A
:100228002208FF007F08F00024080A128A15B12569
:100238000A128A11710883120313B4007008B300FC
:100248003308F900FA01FB01FC017908A9077A08CB
:1002580003110318013E03193229AA077B08031169
:100268000318013E03193929AB077C080311031849
:10027800013E03194029AC073408F900FA01FB01D3
:10028800FC017908AF077A0803110318013E031926
:100298004E29B0077B0803110318013E031955299D
:1002A800B1077C0803110318013E03195C29B20742
:1002B8000830F9000310A90DAA0DAB0DAC0DF90B10
:1002C8005E292108FF007F08F00024080A128A1519
:1002D800B1250A128A11710883120313B400700839
:1002E800B3003308F9003408FA00FB01FC0179086F
:1002F800A9077A0803110318013E03198429AA07DC
:100308007B0803110318013E03198B29AB077C08EE
:1003180003110318013E03199229AC072008FF00B6
:100328007F08F00025080A128A15B1250A128A11D9
:10033800710883120313B4007008B3003308F9007E
:100348003408FA00FB01FC017908A9077A080311AF
:100358000318013E0319B129AA077B0803110318E2
:10036800013E0319B829AB077C0803110318013EA5
:100378000319BF29AC070830F9000310A90DAA0D0D
:10038800AB0DAC0DF90BC1292008FF007F08F00068
:1003980024080A128A15B1250A128A1171088312D3
:1003A8000313B4007008B3003308F9003408FA00E6
:1003B800FB01FC017908A9077A0803110318013E1B
:1003C8000319E729AA077B0803110318013E03193B
:1003D800EE29AB077C0803110318013E0319F52920
:1003E800AC072108FF007F08F00026080A128A15CA
:1003F800B1250A128A11710883120313B400700818
:10040800B3003308F9003408FA00FB01FC0179084D
:10041800AF077A0803110318013E0319142AB0071D
:100428007B0803110318013E03191B2AB1077C0836
:1004380003110318013E0319222AB2072208FF00FC
:100448007F08F00025080A128A15B1250A128A11B8
:10045800710883120313B4007008B3003308F9005D
:100468003408FA00FB01FC017908AF077A08031188
:100478000318013E0319412AB0077B08031103182A
:10048800013E0319482AB1077C0803110318013EED
:1004980003194F2AB2072208FF007F08F000260838
:1004A8000A128A15B1250A128A11710883120313D8
:1004B800B4007008B3003308F9003408FA00FB01EF
:1004C800FC0108300310F90DFA0DFB0DFC0DFF3E81
:1004D800031D662A7908AF077A0803110318013E3D
:1004E8000319772AB0077B0803110318013E031983
:1004F8007E2AB1077C0803110318013E0319852AD7
:10050800B2072908F9002A08FA002B08FB002C0872
:10051800FC0018300310FC0CFB0CFA0CF90CFF3E25
:10052800031D8E2A7908AF077A0803110318013EC4
:1005380003199F2AB0077B0803110318013E03190A
:10054800A62AB1077C0803110318013E0319AD2A36
:10055800B2070830F9000310A90DAA0DAB0DAC0DB8
:10056800F90BAF2A2E082D07F900FA01FA0D7908C0
:10057800823EB3007A080318013EFF3EB400E12A28
:100588000130F9000310AF0DB00DB10DB20DF90B2C
:10059800C62AAC1FD02AD12AD22A2F140130F9003A
:1005A8000310A90DAA0DAB0DAC0DF90BD42AFF3021
:1005B800B3070318B40AFF30B407B11FE42AE52AC9
:1005C800C42AAD01AC1FE92AEA2A062BFF30290507
:1005D800F900FF302A05FA00FF302B05FB007F30B9
:1005E8002C05FC007C087B047A0479040319FD2A95
:1005F800FE2A012BAD01AD0A062B2F1C042B052B5F
:10060800062BFE2A2D0803190A2B0B2B3C2B013035
:10061800AF07003003180130B0070030031801306D
:10062800B107003003180130B207321C1C2B1D2BF8
:100638003C2B2F08F9003008FA003108FB0032087B
:10064800FC000130FD007C0DFC0CFB0CFA0CF90CD5
:10065800FD0B272B7C08B2007B08B1007A08B0009C
:100668007908AF000130B3070318B40A0030B407A3
:100678003408803AFF0080307F02031D452BFF308D
:100688003302031C482B492B542B7F30831203134E
:10069800B2008030B1000030B0000030AF00892BCC
:1006A800831203133408803AFF0080307F02031D51
:1006B8005F2B013033020318622B632B6F2B003042
:1006C80083120313B2000030B1000030B0000030D4
:1006D800AF00A801892B831203133308FF007F089A
:1006E800AE00FF30AF05FF30B0057F30B1050030F8
:1006F800B2052E1C802B812B822BB1172E08F900F6
:100708000310790CFF007F08B2002808FF007F085B
:10071800B2043208A3003108A2003008A1002F0853
:10072800A000080083160313071187120615831209
:1007380003138614831603130614861301130B166A
:100748000A128A1500240A128A110A128A159C2490
:100758000A128A110A128A152F270A128A110A12F6
:100768008A155A240A128A110A128A154E240A1264
:100778008A110F300A128A1515250A128A110030BB
:100788000A128A1528260A128A1183160313AF0043
:10079800B0012F08A7003008A8000A30A9000030CF
:1007A800AA000A128A15D8250A128A118316031379
:1007B8002808BE002708BD0001300A128A1528261D
:1007C8000A128A1183160313AF00B0012F08BD0760
:1007D8000318BE0A3008BE0783120313061DF52B43
:1007E800F62BFA2B8618F92BFA2B222C83160313D7
:1007F8003B033C04031D012C022C222C8312061DF2
:10080800062C072C022C861C0A2C0B2C022C831677
:100818000313BB01BC0101300A128A1515250A12FF
:100828008A1101300A128A15FF250A128A118312C9
:10083800031387120711E401E501F02B8316031354
:100848003B083C04031D292C2A2C8F2C83120313EC
:1008580086182F2C302C8F2C2330831603133D063B
:100868003E040319382C392C8F2C8312861C3D2CFE
:100878003E2C392C831603133D08FB3EBD003E0871
:100888000318013EFF3EBE0083120313E401E50195
:100898000A3083160313A0000030A1003E08A3000D
:1008A8003D08A2000A128A15E9260A128A1183163F
:1008B80003132008FF007F08AA0000300A128A15D7
:1008C8008D250A128A11F630FF007F08831603135C
:1008D800A7003E08A3003D08A2000A30A00000308F
:1008E800A1000A128A15E9260A128A11831603132F
:1008F80020080A128A11E7270A128A11831603139D
:100908003D07FF007F08AA0001300A128A158D25CD
:100918000A128A11F02B831603133B083C04031DAB
:10092800962C972CFC2C8312031306199C2C9D2CB7
:10093800FC2C4B30831603133D063E040319A52CEB
:10094800A62CFC2C8312061DAA2CAB2CA62C8316D5
:1009580003133D08053EBD003E080318013E003E56
:10096800BE0083120313E401E5010A308316031362
:10097800A0000030A1003E08A3003D08A2000A1212
:100988008A15E9260A128A11831603132008FF0024
:100998007F08AA0000300A128A158D250A128A11CA
:1009A800F630FF007F0883160313A7003E08A30054
:1009B8003D08A2000A30A0000030A1000A128A15E2
:1009C800E9260A128A118316031320080A128A11CB
:1009D800E7270A128A11831603133D07FF007F08D1
:1009E800AA0001300A128A158D250A128A11F02BE5
:1009F800831603133B033C04031D032D042D582DBC
:100A08003D08053EAF003E080318013E003EB00019
:100A180040083002031D122D3F082F020318152D20
:100A2800162D2E2D8312031307191B2D1C2D2E2D69
:100A380001300A128A1515250A128A110F300A1276
:100A48008A15FF250A128A11831203138613871247
:100A58000715F02B831603133D08FB3EAF003E0835
:100A68000318013EFF3EB00030084002031D3E2D32
:100A78002F083F020318412D422D582D83120313CE
:100A8800871A472D482D582D01300A128A15152529
:100A98000A128A1117300A128A15FF250A128A11BA
:100AA8008312031307118716831603133B033C04B1
:100AB800031D5F2D602DAD2D0A30A0000030A10070
:100AC8004208A3004108A2000A128A15E9260A1260
:100AD8008A11831603132108A8002008A7000A1208
:100AE8008A15AB240A128A11343083160313AF0017
:100AF800AF0B7C2D00000A3083160313A0000030D2
:100B0800A1004208A3004108A2000A128A15E9269A
:100B18000A128A11831603132108A8002008A700C7
:100B2800F630A900FF30AA000A128A15D8250A1241
:100B38008A118316031341082707AD0042080318DA
:100B4800420A2807AE000A128A15BA240A128A1124
:100B5800F02B3B083C04031DB22DB32DF02B0A30BB
:100B6800A0000030A1003E08A3003D08A2000A1220
:100B78008A15E9260A128A11831603132108A80088
:100B88002008A7000A128A15AB240A128A110A3013
:100B980083160313A0000030A1003E08A3003D08FF
:100BA800A2000A128A15E9260A128A11831603136B
:100BB8002108A8002008A700F630A900FF30AA00E5
:100BC8000A128A15D8250A128A11831603133D08BA
:100BD8002707AD003E0803183E0A2807AE000A1290
:100BE8008A15BA240A128A11F02B0A128A111228BD
:100BF8000C1CFF2D002E802E831603133B083C048B
:100C0800031D072E082E202E013083120313E4073C
:100C18000318E50A0030E5079C3064066504031DE7
:100C2800162E172E7E2EE401E501013083160313DC
:100C3800BB000030BC007E2E013083120313E60790
:100C48000318E70A0030E707053066066704031D46
:100C58002E2E2F2E692EE601E7010A128A118E2701
:100C68000A128A1183120313400883160313C20061
:100C7800831203133F0883160313C100831203135F
:100C88006208C70047074C3E8400831603134108D7
:100C980083138000840A4208800001308312031302
:100CA800E2070318E30A0030E3070A128A15A526AB
:100CB8000A128A110A308312031362066304031DA1
:100CC800662E672E692EE201E301871E6C2E6D2EBB
:100CD8007E2E0130E0070318E10A0030E1072D30CD
:100CE80060066104031D792E7A2E7E2E80308606DA
:100CF800E001E10183120C108B1C832E842EC72E79
:100D08003C3083160313BD000030BE000A30F000EB
:100D18000030F1003E08F3003D08F2000A128A157F
:100D280061260A128A117008FF007F08FA00003055
:100D38000A128A1531250A128A11F630FF007F0837
:100D4800F700831603133E08F3003D08F2000A304B
:100D5800F0000030F1000A128A1561260A128A1181
:100D680070080A128A1500250A128A1183160313BD
:100D78003D07FF007F08FA0001300A128A15312565
:100D88000A128A118B10831203134B08FF004A08BA
:100D98008A0049088400480E8300FE0E7E0E090072
:100DA800F80078080319D92EDA2EEE2EF31FDD2E5F
:100DB800DE2EEE2E7009FA007109FB007209FC00A4
:100DC8007309FD00FA0A0319FB0A0319FC0A03193F
:100DD800FD0AF62E7308FD007208FC007108FB007E
:100DE8007008FA007308720471047004031DFD2E64
:100DF800FE2E072F0030F3000030F2000030F10023
:100E08000030F0008D2F9630FF007F08F900192F71
:100E18000130FF007F08F90701300310FD0CFC0CBE
:100E2800FB0CFA0CFF3E031D112FFE307D05031D40
:100E38001E2F1F2F0C2F3B2F0130FF007F08F907B3
:100E48000130FA07003003180130FB07003003189F
:100E58000130FC07003003180130FD070130031092
:100E6800FD0CFC0CFB0CFA0CFF3E031D332FFF306E
:100E78007D05031D402F412F202F4D2F0130F902F2
:100E88000130F4000310FA0DFB0DFC0DFD0DF40B01
:100E9800462FFC1B502F512F572F02307902031871
:100EA800562F572F422F79185A2F5B2F632FFF3059
:100EB800FA05FF30FB057F30FC05FF30FD05031008
:100EC800F90C7908F400F501F601F7011830031060
:100ED800F40DF50DF60DF70DFF3E031D6B2F74088D
:100EE800FA047508FB047608FC047708FD04780802
:100EF80003197F2F802F852FF31F832F842F852F92
:100F0800FD177D08F3007C08F2007B08F1007A08E1
:100F1800F0000800831203131F151F19942F952F33
:100F2800912F1E08C100C2014108C200C1018316E9
:100F380003131E08831203134107F000003003183F
:100F480001304207F100F201F11BF2037208F300CD
:100F580001300A128A11D4260A128A1173088312E0
:100F68000313C6007208C5007108C4007008C300E6
:100F78004608A7004508A6004408A5004308A400A1
:100F88003E30A300FA30A2004330A100FE30A0009A
:100F98000A128A1135200A128A11831203132308B0
:100FA800B8002208B7002108B6002008B5000A12C8
:100FB8008A1584270A128A11831203133608C0007F
:100FC8003508BF00080083160313A900A801291CCF
:100FD800EE2FEF2FF32F2708FF007F08A807031035
:100FE800A70D0310A90C2908031DFB2FFC2FEB2FBD
:040FF80028080800BD
:1010000008308A000408840A8207003443344834D4
:1010100041344E34473449344E3447342034543408
:1010200045344D345034003443344F344F344C3411
:1010300049344E3447340034483445344134543410
:0810400049344E3447340034FA
:1018000083160313880185110512851208008316BB
:101810000313A0002008831203138800080064004B
:101820008001840A0406031900340406102C0A12ED
:101830008A1566240A128A158316031311140800E8
:101840000A128A1566240A128A15831603131115C3
:1018500008000A128A1573240A128A1583160313C4
:10186000911408000A128A1573240A128A15831625
:101870000313111408000A128A1573240A128A1518
:1018800083160313111508000A128A1573240A120D
:101890008A15831603139116111608002830831237
:1018A00003139400831603139101143093008715DA
:1018B00007160800831603130C140B178B1701303F
:1018C0008312031390008E018F0108008316031307
:1018D00014196B2C6C2C662C11081F39031D712CEC
:1018E000722C662C0800831603131419782C792C9B
:1018F000732C11081F39031D7E2C7F2C732C0800BC
:10190000831203138C1183160313911583128C1DFC
:101910008A2C8B2C862C8C11130808003F3406343B
:101920005B344F3466346D347D3447347F346734F0
:10193000013400343C3400345130831203139F00CF
:10194000C930831603139F00133083160313A000BE
:10195000A00BA82C0800831203138515051283160B
:1019600003132708B13E8400831300088312031376
:1019700088000800831203138511051683160313CC
:101980002D08B13E840083130008831203138800DE
:101990000800F0000A128A1566240A128A157008D7
:1019A0008312031393000A128A1566240A128A15F9
:1019B00008007E088A007F0882000A128A15D9244E
:1019C0000A128A158000840A04087D06031900346F
:1019D000FF0A0319FE0ADD2C83160313A0000A1266
:1019E0008A1573240A128A1583160313200883129A
:1019F000031393000A128A1573240A128A15080029
:101A0000F900F801791C052D062D0A2D7708FF0035
:101A10007F08F8070310F70D0310F90C7908031D70
:101A2000122D132D022D7808080083160313A2002F
:101A300083120313091189148316031322088312D6
:101A40000313880089100D3083160313A100FB30A7
:101A5000A000A00B292DA10B292D8312031389149B
:101A60000800FB000A128A1517240A128A15A030F2
:101A70000A128A15C9240A128A157B080A128A15C5
:101A8000C9240A128A157A080A128A15C9240A1268
:101A90008A150A128A1520240A128A15080083164C
:101AA0000313A300831203130911831603132308DE
:101AB0000A128A1507240A128A158312031389143D
:101AC000033083160313A2009730A100A10B662DEB
:101AD000A20B662D831203138910080083160313CB
:101AE000A3008312031309158316031323080A1294
:101AF0008A1507240A128A158312031389140330E6
:101B000083160313A2009730A100A10B852DA20B11
:101B1000852D831203138910080083160313AB006D
:101B20000A128A1532240A128A15A0300A128A155E
:101B3000EC240A128A15831603132B080A128A153D
:101B4000EC240A128A15831603132A080A128A152E
:101B5000EC240A128A150A128A153B240A128A15E5
:101B60000800F800F401F5017008F200F3017208B2
:101B7000F6007308F700781CBE2DBF2DC52D760822
:101B8000F4070318F50A7708F50701300310F60D7E
:101B9000F70DFF3E031DC62D0310F80C7808031D3A
:101BA000D22DD32DBB2D7508F1007408F00008006C
:101BB00083160313AB01AC01271CDF2DE02DE62DAE
:101BC0002908AB070318AC0A2A08AC070130031038
:101BD000A90DAA0DFF3E031DE72D01300310A80C2F
:101BE000A70CFF3E031DEE2D27082804031DF92D29
:101BF000FA2DDC2D2C08A8002B08A700080083165E
:101C00000313A600A401A5011A2E240826078400A8
:101C10000A128A1500200A128A150A128A156E25E0
:101C20000A128A15013083160313A4070318A50AA4
:101C30000030A5072408260784000A128A15002010
:101C40000A128A15003A031D262E272E052E08009B
:101C500083160313A1000A128A1532240A128A1568
:101C6000A0300A128A15EC240A128A15831603136F
:101C700021080A128A15EC240A128A150A128A15FA
:101C800029240A128A15A1300A128A15EC240A1294
:101C90008A150A128A1580240A128A15FF007F0805
:101CA00083160313A2000A128A1544240A128A1505
:101CB0000A128A153B240A128A1583160313220876
:101CC0000800F401F501700871040319682E692EEB
:101CD000A02EF601F60A772E01300310F00DF10D5B
:101CE000FF3E031D6D2E0130FF007F08F607F11F38
:101CF0007A2E7B2E6C2E01300310F40DF50DFF3E75
:101D0000031D7C2E71087302031D882E7008720259
:101D1000031C8B2E8C2E932E7008F2027108031C6C
:101D2000F303F302741401300310F10CF00CFF3EC6
:101D3000031D942E0130F602031D9F2EA02E7B2E34
:101D40007508F1007408F000080083160313BF0142
:101D5000C001FA01FB017A08F70077074C3E8400C6
:101D600083130008F800840A0008F900831603139F
:101D70003F087807BF0040080318400A7907C000F1
:101D80000130FA070318FB0A0030FB077B08803A92
:101D9000FF0080307F02031DCF2E0A307A02031C21
:101DA000D22ED32EAB2E0A30F0000030F100831675
:101DB00003134008F3003F08F2000A128A15612657
:101DC0000A128A15710883160313C0007008BF0039
:101DD000080083160313A401A50120082104031998
:101DE000F22EF32E2A2FA601A60A012F013003108E
:101DF000A00DA10DFF3E031DF72E0130FF007F084F
:101E0000A607A11F042F052FF62E01300310A40DE5
:101E1000A50DFF3E031D062F21082302031D122FCF
:101E200020082202031C152F162F1D2F2008A202A6
:101E30002108031CA303A302241401300310A10CE6
:101E4000A00CFF3E031D1E2F0130A602031D292FEB
:101E50002A2F052F2508A1002408A00008008316BA
:101E600003138801091189104E3083160313A5004E
:101E7000EA30A400A40B3A2FA50B3A2F0000033040
:101E800083160313A5009730A400A40B452FA50BC0
:101E9000452F30300A128A154F250A128A150D3047
:101EA00083160313A500FB30A400A40B552FA50B2C
:101EB000552F30300A128A154F250A128A156330C1
:101EC00083160313A400A40B632F30300A128A1563
:101ED0004F250A128A1530300A128A154F250A1228
:101EE0008A1580300A128A154F250A128A15013088
:101EF0000A128A154F250A128A1506300A128A1507
:101F00004F250A128A150800031083120313370D98
:101F1000380DFF007F08BE003E08031D902F912F53
:101F20009A2F0030B8000030B7000030B600003003
:101F3000B500FF2F3508B9003608BA003708BB00D6
:101F40003808BC001F300310BC0CBB0CBA0CB90C19
:101F5000FF3E031DA32F3908FF007F08BD00B71700
:101F6000FF30B505FF30B605FF30B7050030B805C6
:101F70009630BE02BE1FBD2FBE2FD82F3E08803A1E
:101F8000973E0318C42FC52FC62F912F0130031081
:101F9000B80CB70CB60CB50CFF3E031DC72F0130B3
:101FA000FF007F08BE07031DD62FD72FC62FEF2FA8
:101FB00020303E02031CDD2FDE2FEA2F912F01304F
:101FC000B9000310B50DB60DB70DB80DB90BE12F63
:101FD0000130BE023E08031DEE2FEF2FDF2F3D081C
:101FE0000319F32FF42FFF2FB509B609B709B80964
:101FF000B50A0319B60A0319B70A0319B80A080083
:02400E003A3F37
:00000001FF
